:1000000000308A001D280000800803191A28AE015C
:100010000408AD002E10831B2E1400080C1E0E28A1
:1000200099002D08840083132E188317840A03195E
:10003000850A04288A110A125A2903081F398300E5
:10004000193083169900A6309800903083129800DA
:1000500083161F149F141F159F1107309C008313D4
:1000600061308312A0006230A1006330A2006430CE
:10007000A3006530A4006630A5006730A600683094
:10008000A7006930A8006A30A9006C30AA006D3062
:10009000AB00AC01831685018312850183168601AE
:1000A000831286018C1E52288C1E54281A08583C34
:1000B000031D56298C1E5A281A08A0008C1E5E2883
:1000C0001A08A1008C1E62281A08A2008C1E66283D
:1000D0001A08A3008C1E6A281A08A4008C1E6E2819
:1000E0001A08A5008C1E72281A08A6008C1E7628F5
:1000F0001A08A7008C1E7A281A08A8008C1E7E28D1
:100100001A08A9008C1E82281A08AA008C1E8628AC
:100110001A08AB002008313C031D932883160610F3
:10012000831206149B282008613C031D9B2883161C
:100130000610831206102108323C031DA4288316E2
:10014000861083128614AC282108623C031DAC285B
:1001500083168610831286102208333C031DB528AF
:100160008316061183120615BD282208633C031D61
:10017000BD2883160611831206112308343C031D83
:10018000C6288316861183128615CE282308643C60
:10019000031DCE2883168611831286112408353C50
:1001A000031DD7288316061283120616DF2824089B
:1001B000653C031DDF2883160612831206122508EC
:1001C000363C031DE8288316861283128616F02813
:1001D0002508663C031DF0288316861283128612BA
:1001E0002608373C031DF9288316061383120617C9
:1001F00001292608673C031D012983160613831273
:1002000006132708383C031D0A2983168613831218
:10021000861712292708683C031D122983168613A6
:10022000831286132808393C031D1B2983160510E9
:100230008312051423292808693C031D23298316EA
:1002400005108312051029082A3C031D2C2983164A
:10025000851083128514342929086A3C031D34292A
:1002600083168510831285102A08303C031D3D2912
:10027000831605118312051545292A086C3C031DB8
:10028000452983160511831205112B08233C031DF4
:100290004E29831685118312851556292B086D3C2E
:1002A000031D562983168511831285112030840081
:1002B000831304280D300C1E5B299900522863001B
:02400E00723FFF
:00000001FF
;PIC16F877A
;CRC=17F7  CREATED="03-nov-17 00:31"
