:1000000000308A00D22800008316061283120616DA
:100010008316861283128612831606138312061322
:100020008316861383128613051C19283130A0000D
:100030001B286130A000851C20283230A100222816
:100040006230A100051D27283330A2002928633023
:10005000A2008316061283120612831686128312DA
:1000600086168316061383120613831686138312CD
:100070008613051C3E283430A30040286430A300BA
:10008000851C45283530A40047286530A400051D8F
:100090004C283630A5004E286630A500831606127F
:1000A0008312061283168612831286128316061393
:1000B000831206178316861383128613051C632882
:1000C0003730A60065286730A600851C6A283830BE
:1000D000A7006C286830A700051D71283930A800DA
:1000E00073286930A800831606128312061283163D
:1000F0008612831286128316061383120613831642
:10010000861383128617051C88282A30A9008A289E
:100110006A30A900851C8F283030AA0091286C30E5
:10012000AA00051D96282330AB0098286D30AB003F
:100130000030F800F62883168610831286100830E7
:10014000F800A2280000F817B328F813AF0C031822
:100150008614031C86107817B3287813F80BA6288A
:10016000B128000086141C308400840BB528B82800
:10017000F81BA528781BAD2808002E3084008313B7
:1001800000080319D1280130F800F701F70BC62841
:10019000F80BC5284A30F700F70BCC28CF28800B86
:1001A000C328152903081F3983008316861083127C
:1001B000861407309F0083136130A0006230A100D5
:1001C0006330A2006430A3006530A4006630A5004F
:1001D0006730A6006830A7006930A8006A30A9001F
:1001E0006C30AA006D30AB00AC0104285830AF0071
:1001F0009B20203084008313003000040319102951
:10020000AE010408AD002E10831B2E140008AF00B1
:100210009B202D08840083132E188317840AFC2842
:100220000230AD00FA30AE00BD28AD0B1229F52822
:02023000630069
:02400E00423F2F
:00000001FF
;PIC16F628A
;CRC=CF82  CREATED="03-nov-17 00:32"
